{
  "contractName": "DRCVault",
  "abi": [
    {
      "inputs": [
        {
          "internalType": "address",
          "name": "_drcAddress",
          "type": "address"
        }
      ],
      "stateMutability": "nonpayable",
      "type": "constructor"
    },
    {
      "anonymous": false,
      "inputs": [
        {
          "indexed": true,
          "internalType": "address",
          "name": "user",
          "type": "address"
        },
        {
          "indexed": false,
          "internalType": "uint256",
          "name": "amount",
          "type": "uint256"
        }
      ],
      "name": "Deposit",
      "type": "event"
    },
    {
      "anonymous": false,
      "inputs": [
        {
          "indexed": true,
          "internalType": "address",
          "name": "previousOwner",
          "type": "address"
        },
        {
          "indexed": true,
          "internalType": "address",
          "name": "newOwner",
          "type": "address"
        }
      ],
      "name": "OwnershipTransferred",
      "type": "event"
    },
    {
      "anonymous": false,
      "inputs": [
        {
          "indexed": true,
          "internalType": "address",
          "name": "user",
          "type": "address"
        },
        {
          "indexed": false,
          "internalType": "uint256",
          "name": "amount",
          "type": "uint256"
        }
      ],
      "name": "Withdraw",
      "type": "event"
    },
    {
      "inputs": [],
      "name": "owner",
      "outputs": [
        {
          "internalType": "address",
          "name": "",
          "type": "address"
        }
      ],
      "stateMutability": "view",
      "type": "function"
    },
    {
      "inputs": [],
      "name": "renounceOwnership",
      "outputs": [],
      "stateMutability": "nonpayable",
      "type": "function"
    },
    {
      "inputs": [
        {
          "internalType": "address",
          "name": "newOwner",
          "type": "address"
        }
      ],
      "name": "transferOwnership",
      "outputs": [],
      "stateMutability": "nonpayable",
      "type": "function"
    },
    {
      "inputs": [],
      "name": "name",
      "outputs": [
        {
          "internalType": "string",
          "name": "",
          "type": "string"
        }
      ],
      "stateMutability": "pure",
      "type": "function"
    },
    {
      "inputs": [],
      "name": "drcAddress",
      "outputs": [
        {
          "internalType": "address",
          "name": "",
          "type": "address"
        }
      ],
      "stateMutability": "view",
      "type": "function"
    },
    {
      "inputs": [],
      "name": "totalAmountLocked",
      "outputs": [
        {
          "internalType": "uint256",
          "name": "",
          "type": "uint256"
        }
      ],
      "stateMutability": "view",
      "type": "function"
    },
    {
      "inputs": [
        {
          "internalType": "address",
          "name": "account",
          "type": "address"
        }
      ],
      "name": "balanceOf",
      "outputs": [
        {
          "internalType": "uint256",
          "name": "",
          "type": "uint256"
        }
      ],
      "stateMutability": "view",
      "type": "function"
    },
    {
      "inputs": [],
      "name": "holders",
      "outputs": [
        {
          "internalType": "address[]",
          "name": "",
          "type": "address[]"
        }
      ],
      "stateMutability": "view",
      "type": "function"
    },
    {
      "inputs": [
        {
          "internalType": "address",
          "name": "account",
          "type": "address"
        },
        {
          "internalType": "uint256",
          "name": "amount",
          "type": "uint256"
        }
      ],
      "name": "deposit",
      "outputs": [],
      "stateMutability": "nonpayable",
      "type": "function"
    },
    {
      "inputs": [
        {
          "internalType": "uint256",
          "name": "amount",
          "type": "uint256"
        }
      ],
      "name": "withdraw",
      "outputs": [],
      "stateMutability": "nonpayable",
      "type": "function"
    }
  ],
  "bytecode": "0x60a060405234801561001057600080fd5b5060405161155a38038061155a83398101604081905261002f91610085565b600080546001600160a01b031916339081178255604051909182917f8be0079c531659141344cd1fd0a4f28419497f9722a3daafe3b4186f6b6457e0908290a35060601b6001600160601b0319166080526100b3565b600060208284031215610096578081fd5b81516001600160a01b03811681146100ac578182fd5b9392505050565b60805160601c61146d6100ed6000396000818161010d015281816102b9015281816103a2015281816104f50152610617015261146d6000f3fe608060405234801561001057600080fd5b50600436106100be5760003560e01c806370a08231116100765780638188f71c1161005b5780638188f71c146101ca5780638da5cb5b146101df578063f2fde38b146101fd57600080fd5b806370a082311461018c578063715018a6146101c257600080fd5b8063230206cd116100a7578063230206cd146101525780632e1a7d4d1461016457806347e7ef241461017957600080fd5b806306fdde03146100c35780630964b3081461010b575b600080fd5b604080518082018252600981527f445243205661756c740000000000000000000000000000000000000000000000602082015290516101029190611323565b60405180910390f35b7f00000000000000000000000000000000000000000000000000000000000000005b60405173ffffffffffffffffffffffffffffffffffffffff9091168152602001610102565b6004545b604051908152602001610102565b61017761017236600461127d565b610210565b005b610177610187366004611234565b610372565b61015661019a36600461121a565b73ffffffffffffffffffffffffffffffffffffffff1660009081526001602052604090205490565b6101776106ff565b6101d26107ef565b60405161010291906112c9565b60005473ffffffffffffffffffffffffffffffffffffffff1661012d565b61017761020b36600461121a565b6108fd565b336000908152600160205260409020548111156102b4576040517f08c379a000000000000000000000000000000000000000000000000000000000815260206004820152602a60248201527f5573657220646f65736e2774206861766520656e6f756768207368617265207460448201527f6f2077697468647261770000000000000000000000000000000000000000000060648201526084015b60405180910390fd5b6102df7f00000000000000000000000000000000000000000000000000000000000000003383610aae565b336000908152600160205260409020546102f99082610b87565b336000908152600160205260409020556004546103169082610b87565b6004553360009081526001602052604090205461033a57610338600233610b9c565b505b60405181815233907f884edad9ce6fa2440d8a54cc123490eb96d2768479d49ff9c7366125a94243649060200160405180910390a250565b6040517f70a0823100000000000000000000000000000000000000000000000000000000815233600482015281907f000000000000000000000000000000000000000000000000000000000000000073ffffffffffffffffffffffffffffffffffffffff16906370a082319060240160206040518083038186803b1580156103f957600080fd5b505afa15801561040d573d6000803e3d6000fd5b505050506040513d601f19601f820116820180604052508101906104319190611295565b10156104bf576040517f08c379a000000000000000000000000000000000000000000000000000000000815260206004820152602660248201527f5573657220646f65736e2774206f776e20656e6f7567682044524320746f206460448201527f65706f736974000000000000000000000000000000000000000000000000000060648201526084016102ab565b6040517fdd62ed3e00000000000000000000000000000000000000000000000000000000815233600482015230602482015281907f000000000000000000000000000000000000000000000000000000000000000073ffffffffffffffffffffffffffffffffffffffff169063dd62ed3e9060440160206040518083038186803b15801561054c57600080fd5b505afa158015610560573d6000803e3d6000fd5b505050506040513d601f19601f820116820180604052508101906105849190611295565b1015610612576040517f08c379a000000000000000000000000000000000000000000000000000000000815260206004820152602f60248201527f55736572206861736e277420617070726f766564207468697320636f6e74726160448201527f637420746f207370656e6420445243000000000000000000000000000000000060648201526084016102ab565b61063e7f0000000000000000000000000000000000000000000000000000000000000000333084610bbe565b73ffffffffffffffffffffffffffffffffffffffff821660009081526001602052604090205461066e9082610c22565b73ffffffffffffffffffffffffffffffffffffffff831660009081526001602052604090205561069f600283610c2e565b506004546106ad9082610c22565b60045560405181815273ffffffffffffffffffffffffffffffffffffffff8316907fe1fffcc4923d04b559f4d29a8bfc6cda04eb5b0d3c460751c2402c5c5cc9109c9060200160405180910390a25050565b60005473ffffffffffffffffffffffffffffffffffffffff163314610780576040517f08c379a000000000000000000000000000000000000000000000000000000000815260206004820181905260248201527f4f776e61626c653a2063616c6c6572206973206e6f7420746865206f776e657260448201526064016102ab565b6000805460405173ffffffffffffffffffffffffffffffffffffffff909116907f8be0079c531659141344cd1fd0a4f28419497f9722a3daafe3b4186f6b6457e0908390a3600080547fffffffffffffffffffffffff0000000000000000000000000000000000000000169055565b606060006107fd6002610c50565b67ffffffffffffffff81111561083c577f4e487b7100000000000000000000000000000000000000000000000000000000600052604160045260246000fd5b604051908082528060200260200182016040528015610865578160200160208202803683370190505b50905060005b6108756002610c50565b8110156108f757610887600282610c5a565b8282815181106108c0577f4e487b7100000000000000000000000000000000000000000000000000000000600052603260045260246000fd5b73ffffffffffffffffffffffffffffffffffffffff90921660209283029190910190910152806108ef816113cf565b91505061086b565b50919050565b60005473ffffffffffffffffffffffffffffffffffffffff16331461097e576040517f08c379a000000000000000000000000000000000000000000000000000000000815260206004820181905260248201527f4f776e61626c653a2063616c6c6572206973206e6f7420746865206f776e657260448201526064016102ab565b73ffffffffffffffffffffffffffffffffffffffff8116610a21576040517f08c379a000000000000000000000000000000000000000000000000000000000815260206004820152602660248201527f4f776e61626c653a206e6577206f776e657220697320746865207a65726f206160448201527f646472657373000000000000000000000000000000000000000000000000000060648201526084016102ab565b6000805460405173ffffffffffffffffffffffffffffffffffffffff808516939216917f8be0079c531659141344cd1fd0a4f28419497f9722a3daafe3b4186f6b6457e091a3600080547fffffffffffffffffffffffff00000000000000000000000000000000000000001673ffffffffffffffffffffffffffffffffffffffff92909216919091179055565b60405173ffffffffffffffffffffffffffffffffffffffff8316602482015260448101829052610b829084907fa9059cbb00000000000000000000000000000000000000000000000000000000906064015b604080517fffffffffffffffffffffffffffffffffffffffffffffffffffffffffffffffe08184030181529190526020810180517bffffffffffffffffffffffffffffffffffffffffffffffffffffffff167fffffffff0000000000000000000000000000000000000000000000000000000090931692909217909152610c66565b505050565b6000610b93828461138c565b90505b92915050565b6000610b938373ffffffffffffffffffffffffffffffffffffffff8416610d72565b60405173ffffffffffffffffffffffffffffffffffffffff80851660248301528316604482015260648101829052610c1c9085907f23b872dd0000000000000000000000000000000000000000000000000000000090608401610b00565b50505050565b6000610b938284611374565b6000610b938373ffffffffffffffffffffffffffffffffffffffff8416610ed4565b6000610b96825490565b6000610b938383610f23565b6000610cc8826040518060400160405280602081526020017f5361666545524332303a206c6f772d6c6576656c2063616c6c206661696c65648152508573ffffffffffffffffffffffffffffffffffffffff166110059092919063ffffffff16565b805190915015610b825780806020019051810190610ce6919061125d565b610b82576040517f08c379a000000000000000000000000000000000000000000000000000000000815260206004820152602a60248201527f5361666545524332303a204552433230206f7065726174696f6e20646964206e60448201527f6f7420737563636565640000000000000000000000000000000000000000000060648201526084016102ab565b60008181526001830160205260408120548015610eca576000610d9660018361138c565b8554909150600090610daa9060019061138c565b90506000866000018281548110610dea577f4e487b7100000000000000000000000000000000000000000000000000000000600052603260045260246000fd5b9060005260206000200154905080876000018481548110610e34577f4e487b7100000000000000000000000000000000000000000000000000000000600052603260045260246000fd5b600091825260208083209091019290925582815260018901909152604090208490558654879080610e8e577f4e487b7100000000000000000000000000000000000000000000000000000000600052603160045260246000fd5b60019003818190600052602060002001600090559055866001016000878152602001908152602001600020600090556001945050505050610b96565b6000915050610b96565b6000818152600183016020526040812054610f1b57508154600181810184556000848152602080822090930184905584548482528286019093526040902091909155610b96565b506000610b96565b81546000908210610fb6576040517f08c379a000000000000000000000000000000000000000000000000000000000815260206004820152602260248201527f456e756d657261626c655365743a20696e646578206f7574206f6620626f756e60448201527f647300000000000000000000000000000000000000000000000000000000000060648201526084016102ab565b826000018281548110610ff2577f4e487b7100000000000000000000000000000000000000000000000000000000600052603260045260246000fd5b9060005260206000200154905092915050565b6060611014848460008561101e565b90505b9392505050565b6060824710156110b0576040517f08c379a000000000000000000000000000000000000000000000000000000000815260206004820152602660248201527f416464726573733a20696e73756666696369656e742062616c616e636520666f60448201527f722063616c6c000000000000000000000000000000000000000000000000000060648201526084016102ab565b843b611118576040517f08c379a000000000000000000000000000000000000000000000000000000000815260206004820152601d60248201527f416464726573733a2063616c6c20746f206e6f6e2d636f6e747261637400000060448201526064016102ab565b6000808673ffffffffffffffffffffffffffffffffffffffff16858760405161114191906112ad565b60006040518083038185875af1925050503d806000811461117e576040519150601f19603f3d011682016040523d82523d6000602084013e611183565b606091505b509150915061119382828661119e565b979650505050505050565b606083156111ad575081611017565b8251156111bd5782518084602001fd5b816040517f08c379a00000000000000000000000000000000000000000000000000000000081526004016102ab9190611323565b803573ffffffffffffffffffffffffffffffffffffffff8116811461121557600080fd5b919050565b60006020828403121561122b578081fd5b610b93826111f1565b60008060408385031215611246578081fd5b61124f836111f1565b946020939093013593505050565b60006020828403121561126e578081fd5b81518015158114611017578182fd5b60006020828403121561128e578081fd5b5035919050565b6000602082840312156112a6578081fd5b5051919050565b600082516112bf8184602087016113a3565b9190910192915050565b6020808252825182820181905260009190848201906040850190845b8181101561131757835173ffffffffffffffffffffffffffffffffffffffff16835292840192918401916001016112e5565b50909695505050505050565b60208152600082518060208401526113428160408501602087016113a3565b601f017fffffffffffffffffffffffffffffffffffffffffffffffffffffffffffffffe0169190910160400192915050565b6000821982111561138757611387611408565b500190565b60008282101561139e5761139e611408565b500390565b60005b838110156113be5781810151838201526020016113a6565b83811115610c1c5750506000910152565b60007fffffffffffffffffffffffffffffffffffffffffffffffffffffffffffffffff82141561140157611401611408565b5060010190565b7f4e487b7100000000000000000000000000000000000000000000000000000000600052601160045260246000fdfea26469706673582212204695621782e8bdfb5a358c96f69c5511c0d00c8f7a5d4e57b581b16434b07a5f64736f6c63430008040033",
  "immutableReferences": {
    "38": [
      {
        "length": 32,
        "start": 269
      },
      {
        "length": 32,
        "start": 697
      },
      {
        "length": 32,
        "start": 930
      },
      {
        "length": 32,
        "start": 1269
      },
      {
        "length": 32,
        "start": 1559
      }
    ]
  },
  "source": "// SPDX-License-Identifier: AGPL-3.0-or-later\n\npragma solidity =0.8.4;\npragma abicoder v2;\n\nimport \"@openzeppelin/contracts/access/Ownable.sol\";\nimport \"@openzeppelin/contracts/utils/math/SafeMath.sol\";\nimport \"@openzeppelin/contracts/utils/structs/EnumerableSet.sol\";\nimport \"@openzeppelin/contracts/token/ERC20/IERC20.sol\";\nimport \"@openzeppelin/contracts/token/ERC20/utils/SafeERC20.sol\";\n\nimport \"./interfaces/IDRCVault.sol\";\n\n/**\n * @dev Implementation of DRC Vault.\n */\ncontract DRCVault is IDRCVault, Ownable {\n    using SafeMath for uint256;\n    using EnumerableSet for EnumerableSet.AddressSet;\n\n    constructor(address _drcAddress) {\n        _drcToken = IERC20(_drcAddress);\n    }\n\n    string private constant _name = \"DRC Vault\";\n    IERC20 private immutable _drcToken;\n    mapping(address => uint256) private _balanceOf;\n    EnumerableSet.AddressSet private _holders;\n    uint256 private _totalAmountLocked;\n\n    /**\n     * @dev See {IDRCVault-name}.\n     */\n    function name() external pure override returns (string memory) {\n        return _name;\n    }\n\n    /**\n     * @dev See {IDRCVault-drcAddress}.\n     */\n    function drcAddress() external view override returns (address) {\n        return address(_drcToken);\n    }\n\n    /**\n     * @dev See {IDRCVault-totalAmountLocked}.\n     */\n    function totalAmountLocked() external view override returns (uint256) {\n        return _totalAmountLocked;\n    }\n\n    /**\n     * @dev See {IDRCVault-balanceOf}.\n     */\n    function balanceOf(address account) external view override returns (uint256) {\n        return _balanceOf[account];\n    }\n\n    /**\n     * @dev See {IDRCVault-holders}.\n     */\n    function holders() external view override returns (address[] memory) {\n        address[] memory accounts = new address[](_holders.length());\n        for (uint256 i = 0; i < _holders.length(); i++) {\n            accounts[i] = _holders.at(i);\n        }\n        return accounts;\n    }\n\n    /**\n     * @dev See {IDRCVault-deposit}.\n     */\n    function deposit(address account, uint256 amount) external override {\n        require(_drcToken.balanceOf(msg.sender) >= amount, \"User doesn't own enough DRC to deposit\");\n        require(\n            _drcToken.allowance(msg.sender, address(this)) >= amount,\n            \"User hasn't approved this contract to spend DRC\"\n        );\n\n        SafeERC20.safeTransferFrom(_drcToken, msg.sender, address(this), amount);\n        _balanceOf[account] = _balanceOf[account].add(amount);\n        _holders.add(account);\n        _totalAmountLocked = _totalAmountLocked.add(amount);\n\n        emit Deposit(account, amount);\n    }\n\n    /**\n     * @dev See {IDRCVault-withdraw}.\n     */\n    function withdraw(uint256 amount) external override {\n        require(_balanceOf[msg.sender] >= amount, \"User doesn't have enough share to withdraw\");\n\n        SafeERC20.safeTransfer(_drcToken, msg.sender, amount);\n        _balanceOf[msg.sender] = _balanceOf[msg.sender].sub(amount);\n        _totalAmountLocked = _totalAmountLocked.sub(amount);\n\n        if (_balanceOf[msg.sender] == 0) {\n            _holders.remove(msg.sender);\n        }\n\n        emit Withdraw(msg.sender, amount);\n    }\n}\n",
  "sourcePath": "/Users/fayexue/if-x-github/drc-vault/contracts/DRCVault.sol",
  "compiler": {
    "name": "solc",
    "version": "0.8.4+commit.c7e474f2.Emscripten.clang"
  },
  "schemaVersion": "3.4.1",
  "updatedAt": "2021-06-07T06:04:24.710Z",
  "devdoc": {
    "details": "Implementation of DRC Vault.",
    "kind": "dev",
    "methods": {
      "balanceOf(address)": {
        "details": "See {IDRCVault-balanceOf}."
      },
      "deposit(address,uint256)": {
        "details": "See {IDRCVault-deposit}."
      },
      "drcAddress()": {
        "details": "See {IDRCVault-drcAddress}."
      },
      "holders()": {
        "details": "See {IDRCVault-holders}."
      },
      "name()": {
        "details": "See {IDRCVault-name}."
      },
      "owner()": {
        "details": "Returns the address of the current owner."
      },
      "renounceOwnership()": {
        "details": "Leaves the contract without owner. It will not be possible to call `onlyOwner` functions anymore. Can only be called by the current owner. NOTE: Renouncing ownership will leave the contract without an owner, thereby removing any functionality that is only available to the owner."
      },
      "totalAmountLocked()": {
        "details": "See {IDRCVault-totalAmountLocked}."
      },
      "transferOwnership(address)": {
        "details": "Transfers ownership of the contract to a new account (`newOwner`). Can only be called by the current owner."
      },
      "withdraw(uint256)": {
        "details": "See {IDRCVault-withdraw}."
      }
    },
    "version": 1
  },
  "userdoc": {
    "kind": "user",
    "methods": {},
    "version": 1
  }
}