{
  "contractName": "DRCVault",
  "abi": [
    {
      "inputs": [
        {
          "internalType": "address",
          "name": "_drcAddress",
          "type": "address"
        }
      ],
      "stateMutability": "nonpayable",
      "type": "constructor"
    },
    {
      "anonymous": false,
      "inputs": [
        {
          "indexed": true,
          "internalType": "address",
          "name": "user",
          "type": "address"
        },
        {
          "indexed": false,
          "internalType": "uint256",
          "name": "amount",
          "type": "uint256"
        }
      ],
      "name": "Deposit",
      "type": "event"
    },
    {
      "anonymous": false,
      "inputs": [
        {
          "indexed": true,
          "internalType": "address",
          "name": "user",
          "type": "address"
        },
        {
          "indexed": false,
          "internalType": "uint256",
          "name": "amount",
          "type": "uint256"
        }
      ],
      "name": "Withdraw",
      "type": "event"
    },
    {
      "inputs": [],
      "name": "name",
      "outputs": [
        {
          "internalType": "string",
          "name": "",
          "type": "string"
        }
      ],
      "stateMutability": "pure",
      "type": "function",
      "constant": true
    },
    {
      "inputs": [],
      "name": "drcAddress",
      "outputs": [
        {
          "internalType": "address",
          "name": "",
          "type": "address"
        }
      ],
      "stateMutability": "view",
      "type": "function",
      "constant": true
    },
    {
      "inputs": [],
      "name": "totalAmountLocked",
      "outputs": [
        {
          "internalType": "uint256",
          "name": "",
          "type": "uint256"
        }
      ],
      "stateMutability": "view",
      "type": "function",
      "constant": true
    },
    {
      "inputs": [
        {
          "internalType": "address",
          "name": "account",
          "type": "address"
        }
      ],
      "name": "balanceOf",
      "outputs": [
        {
          "internalType": "uint256",
          "name": "",
          "type": "uint256"
        }
      ],
      "stateMutability": "view",
      "type": "function",
      "constant": true
    },
    {
      "inputs": [],
      "name": "holders",
      "outputs": [
        {
          "internalType": "address[]",
          "name": "",
          "type": "address[]"
        }
      ],
      "stateMutability": "view",
      "type": "function",
      "constant": true
    },
    {
      "inputs": [
        {
          "internalType": "address",
          "name": "account",
          "type": "address"
        },
        {
          "internalType": "uint256",
          "name": "amount",
          "type": "uint256"
        }
      ],
      "name": "deposit",
      "outputs": [],
      "stateMutability": "nonpayable",
      "type": "function"
    },
    {
      "inputs": [
        {
          "internalType": "uint256",
          "name": "amount",
          "type": "uint256"
        }
      ],
      "name": "withdraw",
      "outputs": [],
      "stateMutability": "nonpayable",
      "type": "function"
    }
  ],
  "bytecode": "0x60a060405234801561001057600080fd5b506040516111fa3803806111fa83398101604081905261002f91610044565b60601b6001600160601b031916608052610072565b600060208284031215610055578081fd5b81516001600160a01b038116811461006b578182fd5b9392505050565b60805160601c61114f6100ab6000396000818160e40152818161023c0152818161032501528181610478015261059a015261114f6000f3fe608060405234801561001057600080fd5b506004361061007d5760003560e01c80632e1a7d4d1161005b5780632e1a7d4d1461012057806347e7ef241461013557806370a08231146101485780638188f71c1461017e57600080fd5b806306fdde03146100825780630964b308146100ca578063230206cd1461010e575b600080fd5b604080518082018252600981527f445243205661756c740000000000000000000000000000000000000000000000602082015290516100c19190611005565b60405180910390f35b60405173ffffffffffffffffffffffffffffffffffffffff7f00000000000000000000000000000000000000000000000000000000000000001681526020016100c1565b6003545b6040519081526020016100c1565b61013361012e366004610f5f565b610193565b005b610133610143366004610f16565b6102f5565b610112610156366004610efc565b73ffffffffffffffffffffffffffffffffffffffff1660009081526020819052604090205490565b610186610682565b6040516100c19190610fab565b33600090815260208190526040902054811115610237576040517f08c379a000000000000000000000000000000000000000000000000000000000815260206004820152602a60248201527f5573657220646f65736e2774206861766520656e6f756768207368617265207460448201527f6f2077697468647261770000000000000000000000000000000000000000000060648201526084015b60405180910390fd5b6102627f00000000000000000000000000000000000000000000000000000000000000003383610790565b3360009081526020819052604090205461027c9082610869565b336000908152602081905260409020556003546102999082610869565b600355336000908152602081905260409020546102bd576102bb60013361087e565b505b60405181815233907f884edad9ce6fa2440d8a54cc123490eb96d2768479d49ff9c7366125a94243649060200160405180910390a250565b6040517f70a0823100000000000000000000000000000000000000000000000000000000815233600482015281907f000000000000000000000000000000000000000000000000000000000000000073ffffffffffffffffffffffffffffffffffffffff16906370a082319060240160206040518083038186803b15801561037c57600080fd5b505afa158015610390573d6000803e3d6000fd5b505050506040513d601f19601f820116820180604052508101906103b49190610f77565b1015610442576040517f08c379a000000000000000000000000000000000000000000000000000000000815260206004820152602660248201527f5573657220646f65736e2774206f776e20656e6f7567682044524320746f206460448201527f65706f7369740000000000000000000000000000000000000000000000000000606482015260840161022e565b6040517fdd62ed3e00000000000000000000000000000000000000000000000000000000815233600482015230602482015281907f000000000000000000000000000000000000000000000000000000000000000073ffffffffffffffffffffffffffffffffffffffff169063dd62ed3e9060440160206040518083038186803b1580156104cf57600080fd5b505afa1580156104e3573d6000803e3d6000fd5b505050506040513d601f19601f820116820180604052508101906105079190610f77565b1015610595576040517f08c379a000000000000000000000000000000000000000000000000000000000815260206004820152602f60248201527f55736572206861736e277420617070726f766564207468697320636f6e74726160448201527f637420746f207370656e64204452430000000000000000000000000000000000606482015260840161022e565b6105c17f00000000000000000000000000000000000000000000000000000000000000003330846108a0565b73ffffffffffffffffffffffffffffffffffffffff82166000908152602081905260409020546105f19082610904565b73ffffffffffffffffffffffffffffffffffffffff8316600090815260208190526040902055610622600183610910565b506003546106309082610904565b60035560405181815273ffffffffffffffffffffffffffffffffffffffff8316907fe1fffcc4923d04b559f4d29a8bfc6cda04eb5b0d3c460751c2402c5c5cc9109c9060200160405180910390a25050565b606060006106906001610932565b67ffffffffffffffff8111156106cf577f4e487b7100000000000000000000000000000000000000000000000000000000600052604160045260246000fd5b6040519080825280602002602001820160405280156106f8578160200160208202803683370190505b50905060005b6107086001610932565b81101561078a5761071a60018261093c565b828281518110610753577f4e487b7100000000000000000000000000000000000000000000000000000000600052603260045260246000fd5b73ffffffffffffffffffffffffffffffffffffffff9092166020928302919091019091015280610782816110b1565b9150506106fe565b50919050565b60405173ffffffffffffffffffffffffffffffffffffffff83166024820152604481018290526108649084907fa9059cbb00000000000000000000000000000000000000000000000000000000906064015b604080517fffffffffffffffffffffffffffffffffffffffffffffffffffffffffffffffe08184030181529190526020810180517bffffffffffffffffffffffffffffffffffffffffffffffffffffffff167fffffffff0000000000000000000000000000000000000000000000000000000090931692909217909152610948565b505050565b6000610875828461106e565b90505b92915050565b60006108758373ffffffffffffffffffffffffffffffffffffffff8416610a54565b60405173ffffffffffffffffffffffffffffffffffffffff808516602483015283166044820152606481018290526108fe9085907f23b872dd00000000000000000000000000000000000000000000000000000000906084016107e2565b50505050565b60006108758284611056565b60006108758373ffffffffffffffffffffffffffffffffffffffff8416610bb6565b6000610878825490565b60006108758383610c05565b60006109aa826040518060400160405280602081526020017f5361666545524332303a206c6f772d6c6576656c2063616c6c206661696c65648152508573ffffffffffffffffffffffffffffffffffffffff16610ce79092919063ffffffff16565b80519091501561086457808060200190518101906109c89190610f3f565b610864576040517f08c379a000000000000000000000000000000000000000000000000000000000815260206004820152602a60248201527f5361666545524332303a204552433230206f7065726174696f6e20646964206e60448201527f6f74207375636365656400000000000000000000000000000000000000000000606482015260840161022e565b60008181526001830160205260408120548015610bac576000610a7860018361106e565b8554909150600090610a8c9060019061106e565b90506000866000018281548110610acc577f4e487b7100000000000000000000000000000000000000000000000000000000600052603260045260246000fd5b9060005260206000200154905080876000018481548110610b16577f4e487b7100000000000000000000000000000000000000000000000000000000600052603260045260246000fd5b600091825260208083209091019290925582815260018901909152604090208490558654879080610b70577f4e487b7100000000000000000000000000000000000000000000000000000000600052603160045260246000fd5b60019003818190600052602060002001600090559055866001016000878152602001908152602001600020600090556001945050505050610878565b6000915050610878565b6000818152600183016020526040812054610bfd57508154600181810184556000848152602080822090930184905584548482528286019093526040902091909155610878565b506000610878565b81546000908210610c98576040517f08c379a000000000000000000000000000000000000000000000000000000000815260206004820152602260248201527f456e756d657261626c655365743a20696e646578206f7574206f6620626f756e60448201527f6473000000000000000000000000000000000000000000000000000000000000606482015260840161022e565b826000018281548110610cd4577f4e487b7100000000000000000000000000000000000000000000000000000000600052603260045260246000fd5b9060005260206000200154905092915050565b6060610cf68484600085610d00565b90505b9392505050565b606082471015610d92576040517f08c379a000000000000000000000000000000000000000000000000000000000815260206004820152602660248201527f416464726573733a20696e73756666696369656e742062616c616e636520666f60448201527f722063616c6c0000000000000000000000000000000000000000000000000000606482015260840161022e565b843b610dfa576040517f08c379a000000000000000000000000000000000000000000000000000000000815260206004820152601d60248201527f416464726573733a2063616c6c20746f206e6f6e2d636f6e7472616374000000604482015260640161022e565b6000808673ffffffffffffffffffffffffffffffffffffffff168587604051610e239190610f8f565b60006040518083038185875af1925050503d8060008114610e60576040519150601f19603f3d011682016040523d82523d6000602084013e610e65565b606091505b5091509150610e75828286610e80565b979650505050505050565b60608315610e8f575081610cf9565b825115610e9f5782518084602001fd5b816040517f08c379a000000000000000000000000000000000000000000000000000000000815260040161022e9190611005565b803573ffffffffffffffffffffffffffffffffffffffff81168114610ef757600080fd5b919050565b600060208284031215610f0d578081fd5b61087582610ed3565b60008060408385031215610f28578081fd5b610f3183610ed3565b946020939093013593505050565b600060208284031215610f50578081fd5b81518015158114610cf9578182fd5b600060208284031215610f70578081fd5b5035919050565b600060208284031215610f88578081fd5b5051919050565b60008251610fa1818460208701611085565b9190910192915050565b6020808252825182820181905260009190848201906040850190845b81811015610ff957835173ffffffffffffffffffffffffffffffffffffffff1683529284019291840191600101610fc7565b50909695505050505050565b6020815260008251806020840152611024816040850160208701611085565b601f017fffffffffffffffffffffffffffffffffffffffffffffffffffffffffffffffe0169190910160400192915050565b60008219821115611069576110696110ea565b500190565b600082821015611080576110806110ea565b500390565b60005b838110156110a0578181015183820152602001611088565b838111156108fe5750506000910152565b60007fffffffffffffffffffffffffffffffffffffffffffffffffffffffffffffffff8214156110e3576110e36110ea565b5060010190565b7f4e487b7100000000000000000000000000000000000000000000000000000000600052601160045260246000fdfea264697066735822122060885a69a81366cad76d8c5fc6346c5e5f672bd149bcae8f24292a10539e417964736f6c63430008040033",
  "immutableReferences": {
    "35": [
      {
        "length": 32,
        "start": 228
      },
      {
        "length": 32,
        "start": 572
      },
      {
        "length": 32,
        "start": 805
      },
      {
        "length": 32,
        "start": 1144
      },
      {
        "length": 32,
        "start": 1434
      }
    ]
  },
  "source": "// SPDX-License-Identifier: AGPL-3.0-or-later\n\npragma solidity =0.8.4;\npragma abicoder v2;\n\nimport \"@openzeppelin/contracts/utils/math/SafeMath.sol\";\nimport \"@openzeppelin/contracts/utils/structs/EnumerableSet.sol\";\nimport \"@openzeppelin/contracts/token/ERC20/IERC20.sol\";\nimport \"@openzeppelin/contracts/token/ERC20/utils/SafeERC20.sol\";\n\nimport \"./interfaces/IDRCVault.sol\";\n\n/**\n * @dev Implementation of DRC Vault.\n */\ncontract DRCVault is IDRCVault {\n    using SafeMath for uint256;\n    using EnumerableSet for EnumerableSet.AddressSet;\n\n    constructor(address _drcAddress) {\n        _drcToken = IERC20(_drcAddress);\n    }\n\n    string private constant _name = \"DRC Vault\";\n    IERC20 private immutable _drcToken;\n    mapping(address => uint256) private _balanceOf;\n    EnumerableSet.AddressSet private _holders;\n    uint256 private _totalAmountLocked;\n\n    /**\n     * @dev See {IDRCVault-name}.\n     */\n    function name() external pure override returns (string memory) {\n        return _name;\n    }\n\n    /**\n     * @dev See {IDRCVault-drcAddress}.\n     */\n    function drcAddress() external view override returns (address) {\n        return address(_drcToken);\n    }\n\n    /**\n     * @dev See {IDRCVault-totalAmountLocked}.\n     */\n    function totalAmountLocked() external view override returns (uint256) {\n        return _totalAmountLocked;\n    }\n\n    /**\n     * @dev See {IDRCVault-balanceOf}.\n     */\n    function balanceOf(address account) external view override returns (uint256) {\n        return _balanceOf[account];\n    }\n\n    /**\n     * @dev See {IDRCVault-holders}.\n     */\n    function holders() external view override returns (address[] memory) {\n        address[] memory accounts = new address[](_holders.length());\n        for (uint256 i = 0; i < _holders.length(); i++) {\n            accounts[i] = _holders.at(i);\n        }\n        return accounts;\n    }\n\n    /**\n     * @dev See {IDRCVault-deposit}.\n     */\n    function deposit(address account, uint256 amount) external override {\n        require(_drcToken.balanceOf(msg.sender) >= amount, \"User doesn't own enough DRC to deposit\");\n        require(\n            _drcToken.allowance(msg.sender, address(this)) >= amount,\n            \"User hasn't approved this contract to spend DRC\"\n        );\n\n        SafeERC20.safeTransferFrom(_drcToken, msg.sender, address(this), amount);\n        _balanceOf[account] = _balanceOf[account].add(amount);\n        _holders.add(account);\n        _totalAmountLocked = _totalAmountLocked.add(amount);\n\n        emit Deposit(account, amount);\n    }\n\n    /**\n     * @dev See {IDRCVault-withdraw}.\n     */\n    function withdraw(uint256 amount) external override {\n        require(_balanceOf[msg.sender] >= amount, \"User doesn't have enough share to withdraw\");\n\n        SafeERC20.safeTransfer(_drcToken, msg.sender, amount);\n        _balanceOf[msg.sender] = _balanceOf[msg.sender].sub(amount);\n        _totalAmountLocked = _totalAmountLocked.sub(amount);\n\n        if (_balanceOf[msg.sender] == 0) {\n            _holders.remove(msg.sender);\n        }\n\n        emit Withdraw(msg.sender, amount);\n    }\n}\n",
  "sourcePath": "/Users/fayexue/if-x-github/drc-vault/contracts/DRCVault.sol",
  "compiler": {
    "name": "solc",
    "version": "0.8.4+commit.c7e474f2.Emscripten.clang"
  },
  "schemaVersion": "3.4.1",
  "updatedAt": "2021-06-07T11:55:33.518Z",
  "networkType": "ethereum",
  "devdoc": {
    "details": "Implementation of DRC Vault.",
    "kind": "dev",
    "methods": {
      "balanceOf(address)": {
        "details": "See {IDRCVault-balanceOf}."
      },
      "deposit(address,uint256)": {
        "details": "See {IDRCVault-deposit}."
      },
      "drcAddress()": {
        "details": "See {IDRCVault-drcAddress}."
      },
      "holders()": {
        "details": "See {IDRCVault-holders}."
      },
      "name()": {
        "details": "See {IDRCVault-name}."
      },
      "totalAmountLocked()": {
        "details": "See {IDRCVault-totalAmountLocked}."
      },
      "withdraw(uint256)": {
        "details": "See {IDRCVault-withdraw}."
      }
    },
    "version": 1
  },
  "userdoc": {
    "kind": "user",
    "methods": {},
    "version": 1
  }
}